{
  "contractName": "CertificadoCurso",
  "abi": [
    {
      "anonymous": false,
      "inputs": [
        {
          "indexed": false,
          "internalType": "uint256",
          "name": "id",
          "type": "uint256"
        },
        {
          "indexed": false,
          "internalType": "string",
          "name": "nomeAluno",
          "type": "string"
        },
        {
          "indexed": false,
          "internalType": "string",
          "name": "curso",
          "type": "string"
        },
        {
          "indexed": false,
          "internalType": "string",
          "name": "dataEmissao",
          "type": "string"
        }
      ],
      "name": "CertificadoRegistrado",
      "type": "event"
    },
    {
      "anonymous": false,
      "inputs": [
        {
          "indexed": false,
          "internalType": "uint256",
          "name": "id",
          "type": "uint256"
        }
      ],
      "name": "CertificadoRevogado",
      "type": "event"
    },
    {
      "inputs": [
        {
          "internalType": "uint256",
          "name": "",
          "type": "uint256"
        }
      ],
      "name": "certificados",
      "outputs": [
        {
          "internalType": "uint256",
          "name": "id",
          "type": "uint256"
        },
        {
          "internalType": "string",
          "name": "nomeAluno",
          "type": "string"
        },
        {
          "internalType": "string",
          "name": "curso",
          "type": "string"
        },
        {
          "internalType": "string",
          "name": "dataEmissao",
          "type": "string"
        },
        {
          "internalType": "bool",
          "name": "valido",
          "type": "bool"
        }
      ],
      "stateMutability": "view",
      "type": "function",
      "constant": true
    },
    {
      "inputs": [
        {
          "internalType": "uint256",
          "name": "_id",
          "type": "uint256"
        },
        {
          "internalType": "string",
          "name": "_nomeAluno",
          "type": "string"
        },
        {
          "internalType": "string",
          "name": "_curso",
          "type": "string"
        },
        {
          "internalType": "string",
          "name": "_dataEmissao",
          "type": "string"
        }
      ],
      "name": "registrarCertificado",
      "outputs": [],
      "stateMutability": "nonpayable",
      "type": "function"
    },
    {
      "inputs": [
        {
          "internalType": "uint256",
          "name": "_id",
          "type": "uint256"
        }
      ],
      "name": "consultarCertificado",
      "outputs": [
        {
          "internalType": "string",
          "name": "nomeAluno",
          "type": "string"
        },
        {
          "internalType": "string",
          "name": "curso",
          "type": "string"
        },
        {
          "internalType": "string",
          "name": "dataEmissao",
          "type": "string"
        },
        {
          "internalType": "bool",
          "name": "valido",
          "type": "bool"
        }
      ],
      "stateMutability": "view",
      "type": "function",
      "constant": true
    },
    {
      "inputs": [
        {
          "internalType": "uint256",
          "name": "_id",
          "type": "uint256"
        }
      ],
      "name": "revogarCertificado",
      "outputs": [],
      "stateMutability": "nonpayable",
      "type": "function"
    }
  ],
  "bytecode": "0x608060405234801561000f575f80fd5b506110188061001d5f395ff3fe608060405234801561000f575f80fd5b506004361061004a575f3560e01c80638e59bb481461004e578063a93ecd4114610082578063c43162a81461009e578063d2c00511146100ba575b5f80fd5b610068600480360381019061006391906107ca565b6100ed565b6040516100799594939291906108a8565b60405180910390f35b61009c600480360381019061009791906107ca565b6102bc565b005b6100b860048036038101906100b39190610a3a565b6103da565b005b6100d460048036038101906100cf91906107ca565b610517565b6040516100e49493929190610af2565b60405180910390f35b5f602052805f5260405f205f91509050805f01549080600101805461011190610b77565b80601f016020809104026020016040519081016040528092919081815260200182805461013d90610b77565b80156101885780601f1061015f57610100808354040283529160200191610188565b820191905f5260205f20905b81548152906001019060200180831161016b57829003601f168201915b50505050509080600201805461019d90610b77565b80601f01602080910402602001604051908101604052809291908181526020018280546101c990610b77565b80156102145780601f106101eb57610100808354040283529160200191610214565b820191905f5260205f20905b8154815290600101906020018083116101f757829003601f168201915b50505050509080600301805461022990610b77565b80601f016020809104026020016040519081016040528092919081815260200182805461025590610b77565b80156102a05780601f10610277576101008083540402835291602001916102a0565b820191905f5260205f20905b81548152906001019060200180831161028357829003601f168201915b505050505090806004015f9054906101000a900460ff16905085565b5f805f8381526020019081526020015f205f015403610310576040517f08c379a000000000000000000000000000000000000000000000000000000000815260040161030790610bf1565b60405180910390fd5b600115155f808381526020019081526020015f206004015f9054906101000a900460ff16151514610376576040517f08c379a000000000000000000000000000000000000000000000000000000000815260040161036d90610c59565b60405180910390fd5b5f805f8381526020019081526020015f206004015f6101000a81548160ff0219169083151502179055507f043b86ed43d2475ef4742db235fd0054c10e94fbcd06fbf10c6d131aaeceb074816040516103cf9190610c77565b60405180910390a150565b5f805f8681526020019081526020015f205f01541461042e576040517f08c379a000000000000000000000000000000000000000000000000000000000815260040161042590610d00565b60405180910390fd5b6040518060a00160405280858152602001848152602001838152602001828152602001600115158152505f808681526020019081526020015f205f820151815f015560208201518160010190816104859190610ebb565b50604082015181600201908161049b9190610ebb565b5060608201518160030190816104b19190610ebb565b506080820151816004015f6101000a81548160ff0219169083151502179055509050507f82c0ba047fd169082117d7a95e02d74b99ba30483dcd415b2bbf490e2f1a67f8848484846040516105099493929190610f8a565b60405180910390a150505050565b60608060605f805f808781526020019081526020015f205f015403610571576040517f08c379a000000000000000000000000000000000000000000000000000000000815260040161056890610bf1565b60405180910390fd5b5f805f8781526020019081526020015f206040518060a00160405290815f82015481526020016001820180546105a690610b77565b80601f01602080910402602001604051908101604052809291908181526020018280546105d290610b77565b801561061d5780601f106105f45761010080835404028352916020019161061d565b820191905f5260205f20905b81548152906001019060200180831161060057829003601f168201915b5050505050815260200160028201805461063690610b77565b80601f016020809104026020016040519081016040528092919081815260200182805461066290610b77565b80156106ad5780601f10610684576101008083540402835291602001916106ad565b820191905f5260205f20905b81548152906001019060200180831161069057829003601f168201915b505050505081526020016003820180546106c690610b77565b80601f01602080910402602001604051908101604052809291908181526020018280546106f290610b77565b801561073d5780601f106107145761010080835404028352916020019161073d565b820191905f5260205f20905b81548152906001019060200180831161072057829003601f168201915b50505050508152602001600482015f9054906101000a900460ff161515151581525050905080602001518160400151826060015183608001519450945094509450509193509193565b5f604051905090565b5f80fd5b5f80fd5b5f819050919050565b6107a981610797565b81146107b3575f80fd5b50565b5f813590506107c4816107a0565b92915050565b5f602082840312156107df576107de61078f565b5b5f6107ec848285016107b6565b91505092915050565b6107fe81610797565b82525050565b5f81519050919050565b5f82825260208201905092915050565b5f5b8381101561083b578082015181840152602081019050610820565b5f8484015250505050565b5f601f19601f8301169050919050565b5f61086082610804565b61086a818561080e565b935061087a81856020860161081e565b61088381610846565b840191505092915050565b5f8115159050919050565b6108a28161088e565b82525050565b5f60a0820190506108bb5f8301886107f5565b81810360208301526108cd8187610856565b905081810360408301526108e18186610856565b905081810360608301526108f58185610856565b90506109046080830184610899565b9695505050505050565b5f80fd5b5f80fd5b7f4e487b71000000000000000000000000000000000000000000000000000000005f52604160045260245ffd5b61094c82610846565b810181811067ffffffffffffffff8211171561096b5761096a610916565b5b80604052505050565b5f61097d610786565b90506109898282610943565b919050565b5f67ffffffffffffffff8211156109a8576109a7610916565b5b6109b182610846565b9050602081019050919050565b828183375f83830152505050565b5f6109de6109d98461098e565b610974565b9050828152602081018484840111156109fa576109f9610912565b5b610a058482856109be565b509392505050565b5f82601f830112610a2157610a2061090e565b5b8135610a318482602086016109cc565b91505092915050565b5f805f8060808587031215610a5257610a5161078f565b5b5f610a5f878288016107b6565b945050602085013567ffffffffffffffff811115610a8057610a7f610793565b5b610a8c87828801610a0d565b935050604085013567ffffffffffffffff811115610aad57610aac610793565b5b610ab987828801610a0d565b925050606085013567ffffffffffffffff811115610ada57610ad9610793565b5b610ae687828801610a0d565b91505092959194509250565b5f6080820190508181035f830152610b0a8187610856565b90508181036020830152610b1e8186610856565b90508181036040830152610b328185610856565b9050610b416060830184610899565b95945050505050565b7f4e487b71000000000000000000000000000000000000000000000000000000005f52602260045260245ffd5b5f6002820490506001821680610b8e57607f821691505b602082108103610ba157610ba0610b4a565b5b50919050565b7f436572746966696361646f206e616f20656e636f6e747261646f2e00000000005f82015250565b5f610bdb601b8361080e565b9150610be682610ba7565b602082019050919050565b5f6020820190508181035f830152610c0881610bcf565b9050919050565b7f436572746966696361646f206a612065737461207265766f6761646f2e0000005f82015250565b5f610c43601d8361080e565b9150610c4e82610c0f565b602082019050919050565b5f6020820190508181035f830152610c7081610c37565b9050919050565b5f602082019050610c8a5f8301846107f5565b92915050565b7f436572746966696361646f20636f6d2065737465204944206a612065786973745f8201527f652e000000000000000000000000000000000000000000000000000000000000602082015250565b5f610cea60228361080e565b9150610cf582610c90565b604082019050919050565b5f6020820190508181035f830152610d1781610cde565b9050919050565b5f819050815f5260205f209050919050565b5f6020601f8301049050919050565b5f82821b905092915050565b5f60088302610d7a7fffffffffffffffffffffffffffffffffffffffffffffffffffffffffffffffff82610d3f565b610d848683610d3f565b95508019841693508086168417925050509392505050565b5f819050919050565b5f610dbf610dba610db584610797565b610d9c565b610797565b9050919050565b5f819050919050565b610dd883610da5565b610dec610de482610dc6565b848454610d4b565b825550505050565b5f90565b610e00610df4565b610e0b818484610dcf565b505050565b5b81811015610e2e57610e235f82610df8565b600181019050610e11565b5050565b601f821115610e7357610e4481610d1e565b610e4d84610d30565b81016020851015610e5c578190505b610e70610e6885610d30565b830182610e10565b50505b505050565b5f82821c905092915050565b5f610e935f1984600802610e78565b1980831691505092915050565b5f610eab8383610e84565b9150826002028217905092915050565b610ec482610804565b67ffffffffffffffff811115610edd57610edc610916565b5b610ee78254610b77565b610ef2828285610e32565b5f60209050601f831160018114610f23575f8415610f11578287015190505b610f1b8582610ea0565b865550610f82565b601f198416610f3186610d1e565b5f5b82811015610f5857848901518255600182019150602085019450602081019050610f33565b86831015610f755784890151610f71601f891682610e84565b8355505b6001600288020188555050505b505050505050565b5f608082019050610f9d5f8301876107f5565b8181036020830152610faf8186610856565b90508181036040830152610fc38185610856565b90508181036060830152610fd78184610856565b90509594505050505056fea2646970667358221220c6b54d2f521acd773d6924f7d372d0ffce7747d670d558fab9458b6925d0b7f264736f6c63430008150033",
  "immutableReferences": {},
  "source": "// SPDX-License-Identifier: MIT\r\npragma solidity ^0.8.0;\r\n\r\ncontract CertificadoCurso {\r\n    // Estrutura do Certificado\r\n    struct Certificado {\r\n        uint id;\r\n        string nomeAluno;\r\n        string curso;\r\n        string dataEmissao;\r\n        bool valido;\r\n    }\r\n\r\n    // Mapeamento de certificados por ID\r\n    mapping(uint => Certificado) public certificados;\r\n\r\n    // Evento para notificar aes\r\n    event CertificadoRegistrado(uint id, string nomeAluno, string curso, string dataEmissao);\r\n    event CertificadoRevogado(uint id);\r\n\r\n    // Funo para registrar um novo certificado\r\n    function registrarCertificado(\r\n        uint _id,\r\n        string memory _nomeAluno,\r\n        string memory _curso,\r\n        string memory _dataEmissao\r\n    ) public {\r\n        require(certificados[_id].id == 0, \"Certificado com este ID ja existe.\");\r\n\r\n        certificados[_id] = Certificado({\r\n            id: _id,\r\n            nomeAluno: _nomeAluno,\r\n            curso: _curso,\r\n            dataEmissao: _dataEmissao,\r\n            valido: true\r\n        });\r\n\r\n        emit CertificadoRegistrado(_id, _nomeAluno, _curso, _dataEmissao);\r\n    }\r\n\r\n    // Funo para consultar a validade de um certificado pelo ID\r\n    function consultarCertificado(uint _id) public view returns (\r\n        string memory nomeAluno,\r\n        string memory curso,\r\n        string memory dataEmissao,\r\n        bool valido\r\n    ) {\r\n        require(certificados[_id].id != 0, \"Certificado nao encontrado.\");\r\n        Certificado memory cert = certificados[_id];\r\n        return (cert.nomeAluno, cert.curso, cert.dataEmissao, cert.valido);\r\n    }\r\n\r\n    // Funo para revogar um certificado\r\n    function revogarCertificado(uint _id) public {\r\n        require(certificados[_id].id != 0, \"Certificado nao encontrado.\");\r\n        require(certificados[_id].valido == true, \"Certificado ja esta revogado.\");\r\n\r\n        certificados[_id].valido = false;\r\n\r\n        emit CertificadoRevogado(_id);\r\n    }\r\n}\r\n",
  "sourcePath": "C:\\Users\\LUCAS.ACCESSOR\\Downloads\\atividade_certificado\\certificado-truffle\\contracts\\certificadoCurso.sol",
  "compiler": {
    "name": "solc",
    "version": "0.8.21+commit.d9974bed.Emscripten.clang"
  },
  "schemaVersion": "3.4.16",
  "updatedAt": "2024-11-17T23:36:09.429Z",
  "networkType": "ethereum",
  "devdoc": {
    "kind": "dev",
    "methods": {},
    "version": 1
  },
  "userdoc": {
    "kind": "user",
    "methods": {},
    "version": 1
  }
}